{
  "_format": "hh-sol-artifact-1",
  "contractName": "Psucc",
  "sourceName": "contracts/Psucc.sol",
  "abi": [
    {
      "inputs": [],
      "stateMutability": "nonpayable",
      "type": "constructor"
    },
    {
      "anonymous": false,
      "inputs": [
        {
          "indexed": true,
          "internalType": "address",
          "name": "owner",
          "type": "address"
        },
        {
          "indexed": true,
          "internalType": "address",
          "name": "spender",
          "type": "address"
        },
        {
          "indexed": false,
          "internalType": "uint256",
          "name": "value",
          "type": "uint256"
        }
      ],
      "name": "Approval",
      "type": "event"
    },
    {
      "anonymous": false,
      "inputs": [
        {
          "indexed": true,
          "internalType": "address",
          "name": "from",
          "type": "address"
        },
        {
          "indexed": true,
          "internalType": "address",
          "name": "to",
          "type": "address"
        },
        {
          "indexed": false,
          "internalType": "uint256",
          "name": "value",
          "type": "uint256"
        }
      ],
      "name": "Transfer",
      "type": "event"
    },
    {
      "inputs": [
        {
          "internalType": "address",
          "name": "",
          "type": "address"
        },
        {
          "internalType": "address",
          "name": "",
          "type": "address"
        }
      ],
      "name": "allowance",
      "outputs": [
        {
          "internalType": "uint256",
          "name": "",
          "type": "uint256"
        }
      ],
      "stateMutability": "view",
      "type": "function"
    },
    {
      "inputs": [
        {
          "internalType": "address",
          "name": "spender",
          "type": "address"
        },
        {
          "internalType": "uint256",
          "name": "amount",
          "type": "uint256"
        }
      ],
      "name": "approve",
      "outputs": [
        {
          "internalType": "bool",
          "name": "",
          "type": "bool"
        }
      ],
      "stateMutability": "nonpayable",
      "type": "function"
    },
    {
      "inputs": [
        {
          "internalType": "address",
          "name": "",
          "type": "address"
        }
      ],
      "name": "balanceOf",
      "outputs": [
        {
          "internalType": "uint256",
          "name": "",
          "type": "uint256"
        }
      ],
      "stateMutability": "view",
      "type": "function"
    },
    {
      "inputs": [
        {
          "internalType": "address",
          "name": "account",
          "type": "address"
        },
        {
          "internalType": "uint256",
          "name": "amount",
          "type": "uint256"
        }
      ],
      "name": "burnToken",
      "outputs": [],
      "stateMutability": "nonpayable",
      "type": "function"
    },
    {
      "inputs": [],
      "name": "decimals",
      "outputs": [
        {
          "internalType": "uint8",
          "name": "",
          "type": "uint8"
        }
      ],
      "stateMutability": "view",
      "type": "function"
    },
    {
      "inputs": [],
      "name": "getdecimals",
      "outputs": [
        {
          "internalType": "uint8",
          "name": "",
          "type": "uint8"
        }
      ],
      "stateMutability": "view",
      "type": "function"
    },
    {
      "inputs": [
        {
          "internalType": "address",
          "name": "account",
          "type": "address"
        },
        {
          "internalType": "uint256",
          "name": "amount",
          "type": "uint256"
        }
      ],
      "name": "mintToken",
      "outputs": [],
      "stateMutability": "nonpayable",
      "type": "function"
    },
    {
      "inputs": [],
      "name": "name",
      "outputs": [
        {
          "internalType": "string",
          "name": "",
          "type": "string"
        }
      ],
      "stateMutability": "view",
      "type": "function"
    },
    {
      "inputs": [],
      "name": "symbol",
      "outputs": [
        {
          "internalType": "string",
          "name": "",
          "type": "string"
        }
      ],
      "stateMutability": "view",
      "type": "function"
    },
    {
      "inputs": [],
      "name": "totalSupply",
      "outputs": [
        {
          "internalType": "uint256",
          "name": "",
          "type": "uint256"
        }
      ],
      "stateMutability": "view",
      "type": "function"
    },
    {
      "inputs": [
        {
          "internalType": "address",
          "name": "recipient",
          "type": "address"
        },
        {
          "internalType": "uint256",
          "name": "amount",
          "type": "uint256"
        }
      ],
      "name": "transfer",
      "outputs": [
        {
          "internalType": "bool",
          "name": "",
          "type": "bool"
        }
      ],
      "stateMutability": "nonpayable",
      "type": "function"
    },
    {
      "inputs": [
        {
          "internalType": "address",
          "name": "sender",
          "type": "address"
        },
        {
          "internalType": "address",
          "name": "recipient",
          "type": "address"
        },
        {
          "internalType": "uint256",
          "name": "amount",
          "type": "uint256"
        }
      ],
      "name": "transferFrom",
      "outputs": [
        {
          "internalType": "bool",
          "name": "",
          "type": "bool"
        }
      ],
      "stateMutability": "nonpayable",
      "type": "function"
    },
    {
      "inputs": [
        {
          "internalType": "uint256",
          "name": "amount",
          "type": "uint256"
        }
      ],
      "name": "weiUnit",
      "outputs": [
        {
          "internalType": "uint256",
          "name": "",
          "type": "uint256"
        }
      ],
      "stateMutability": "pure",
      "type": "function"
    }
  ],
  "bytecode": "0x60806040523480156200001157600080fd5b506040518060400160405280600a81526020017f4e6578757320436f696e000000000000000000000000000000000000000000008152506040518060400160405280600381526020017f4e584300000000000000000000000000000000000000000000000000000000008152506002826003908051906020019062000098929190620001f7565b508160049080519060200190620000b1929190620001f7565b5080600560006101000a81548160ff021916908360ff1602179055505050506200011333670de0b6b3a7640000600560009054906101000a900460ff1660ff16620000fd919062000332565b67ffffffffffffffff166200011960201b60201c565b6200042d565b80600160008473ffffffffffffffffffffffffffffffffffffffff1673ffffffffffffffffffffffffffffffffffffffff16815260200190815260200160002060008282546200016a9190620002d5565b9250508190555080600080828254620001849190620002d5565b925050819055508173ffffffffffffffffffffffffffffffffffffffff16600073ffffffffffffffffffffffffffffffffffffffff167fddf252ad1be2c89b69c2b068fc378daa952ba7f163c4a11628f55a4df523b3ef83604051620001eb9190620002b8565b60405180910390a35050565b828054620002059062000399565b90600052602060002090601f01602090048101928262000229576000855562000275565b82601f106200024457805160ff191683800117855562000275565b8280016001018555821562000275579182015b828111156200027457825182559160200191906001019062000257565b5b50905062000284919062000288565b5090565b5b80821115620002a357600081600090555060010162000289565b5090565b620002b2816200037b565b82525050565b6000602082019050620002cf6000830184620002a7565b92915050565b6000620002e2826200037b565b9150620002ef836200037b565b9250827fffffffffffffffffffffffffffffffffffffffffffffffffffffffffffffffff03821115620003275762000326620003cf565b5b828201905092915050565b60006200033f8262000385565b91506200034c8362000385565b92508167ffffffffffffffff048311821515161562000370576200036f620003cf565b5b828202905092915050565b6000819050919050565b600067ffffffffffffffff82169050919050565b60006002820490506001821680620003b257607f821691505b60208210811415620003c957620003c8620003fe565b5b50919050565b7f4e487b7100000000000000000000000000000000000000000000000000000000600052601160045260246000fd5b7f4e487b7100000000000000000000000000000000000000000000000000000000600052602260045260246000fd5b610ead806200043d6000396000f3fe608060405234801561001057600080fd5b50600436106100cf5760003560e01c806379c650681161008c578063a9059cbb11610066578063a9059cbb14610228578063b20e5a7914610258578063d1df306c14610276578063dd62ed3e14610292576100cf565b806379c65068146101be57806395d89b41146101da578063a03ecbdf146101f8576100cf565b806306fdde03146100d4578063095ea7b3146100f257806318160ddd1461012257806323b872dd14610140578063313ce5671461017057806370a082311461018e575b600080fd5b6100dc6102c2565b6040516100e99190610bc8565b60405180910390f35b61010c60048036038101906101079190610ae2565b610350565b6040516101199190610bad565b60405180910390f35b61012a610442565b6040516101379190610bea565b60405180910390f35b61015a60048036038101906101559190610a93565b610448565b6040516101679190610bad565b60405180910390f35b6101786105f9565b6040516101859190610c05565b60405180910390f35b6101a860048036038101906101a39190610a2e565b61060c565b6040516101b59190610bea565b60405180910390f35b6101d860048036038101906101d39190610ae2565b610624565b005b6101e261063a565b6040516101ef9190610bc8565b60405180910390f35b610212600480360381019061020d9190610b1e565b6106c8565b60405161021f9190610bea565b60405180910390f35b610242600480360381019061023d9190610ae2565b6106e5565b60405161024f9190610bad565b60405180910390f35b610260610802565b60405161026d9190610c05565b60405180910390f35b610290600480360381019061028b9190610ae2565b610819565b005b6102ac60048036038101906102a79190610a57565b61082f565b6040516102b99190610bea565b60405180910390f35b600380546102cf90610da8565b80601f01602080910402602001604051908101604052809291908181526020018280546102fb90610da8565b80156103485780601f1061031d57610100808354040283529160200191610348565b820191906000526020600020905b81548152906001019060200180831161032b57829003601f168201915b505050505081565b600081600260003373ffffffffffffffffffffffffffffffffffffffff1673ffffffffffffffffffffffffffffffffffffffff16815260200190815260200160002060008573ffffffffffffffffffffffffffffffffffffffff1673ffffffffffffffffffffffffffffffffffffffff168152602001908152602001600020819055508273ffffffffffffffffffffffffffffffffffffffff163373ffffffffffffffffffffffffffffffffffffffff167f8c5be1e5ebec7d5bd14f71427d1e84f3dd0314c0f7b2291e5b200ac8c7c3b925846040516104309190610bea565b60405180910390a36001905092915050565b60005481565b600081600260008673ffffffffffffffffffffffffffffffffffffffff1673ffffffffffffffffffffffffffffffffffffffff16815260200190815260200160002060003373ffffffffffffffffffffffffffffffffffffffff1673ffffffffffffffffffffffffffffffffffffffff16815260200190815260200160002060008282546104d69190610cec565b9250508190555081600160008673ffffffffffffffffffffffffffffffffffffffff1673ffffffffffffffffffffffffffffffffffffffff168152602001908152602001600020600082825461052c9190610cec565b9250508190555081600160008573ffffffffffffffffffffffffffffffffffffffff1673ffffffffffffffffffffffffffffffffffffffff16815260200190815260200160002060008282546105829190610c3c565b925050819055508273ffffffffffffffffffffffffffffffffffffffff168473ffffffffffffffffffffffffffffffffffffffff167fddf252ad1be2c89b69c2b068fc378daa952ba7f163c4a11628f55a4df523b3ef846040516105e69190610bea565b60405180910390a3600190509392505050565b600560009054906101000a900460ff1681565b60016020528060005260406000206000915090505481565b61063682610631836106c8565b610854565b5050565b6004805461064790610da8565b80601f016020809104026020016040519081016040528092919081815260200182805461067390610da8565b80156106c05780601f10610695576101008083540402835291602001916106c0565b820191906000526020600020905b8154815290600101906020018083116106a357829003601f168201915b505050505081565b6000670de0b6b3a7640000826106de9190610c92565b9050919050565b600081600160003373ffffffffffffffffffffffffffffffffffffffff1673ffffffffffffffffffffffffffffffffffffffff16815260200190815260200160002060008282546107369190610cec565b9250508190555081600160008573ffffffffffffffffffffffffffffffffffffffff1673ffffffffffffffffffffffffffffffffffffffff168152602001908152602001600020600082825461078c9190610c3c565b925050819055508273ffffffffffffffffffffffffffffffffffffffff163373ffffffffffffffffffffffffffffffffffffffff167fddf252ad1be2c89b69c2b068fc378daa952ba7f163c4a11628f55a4df523b3ef846040516107f09190610bea565b60405180910390a36001905092915050565b6000600560009054906101000a900460ff16905090565b61082b82610826836106c8565b61092c565b5050565b6002602052816000526040600020602052806000526040600020600091509150505481565b80600160008473ffffffffffffffffffffffffffffffffffffffff1673ffffffffffffffffffffffffffffffffffffffff16815260200190815260200160002060008282546108a39190610c3c565b92505081905550806000808282546108bb9190610c3c565b925050819055508173ffffffffffffffffffffffffffffffffffffffff16600073ffffffffffffffffffffffffffffffffffffffff167fddf252ad1be2c89b69c2b068fc378daa952ba7f163c4a11628f55a4df523b3ef836040516109209190610bea565b60405180910390a35050565b80600160008473ffffffffffffffffffffffffffffffffffffffff1673ffffffffffffffffffffffffffffffffffffffff168152602001908152602001600020600082825461097b9190610cec565b92505081905550806000808282546109939190610cec565b92505081905550600073ffffffffffffffffffffffffffffffffffffffff168273ffffffffffffffffffffffffffffffffffffffff167fddf252ad1be2c89b69c2b068fc378daa952ba7f163c4a11628f55a4df523b3ef836040516109f89190610bea565b60405180910390a35050565b600081359050610a1381610e49565b92915050565b600081359050610a2881610e60565b92915050565b600060208284031215610a4057600080fd5b6000610a4e84828501610a04565b91505092915050565b60008060408385031215610a6a57600080fd5b6000610a7885828601610a04565b9250506020610a8985828601610a04565b9150509250929050565b600080600060608486031215610aa857600080fd5b6000610ab686828701610a04565b9350506020610ac786828701610a04565b9250506040610ad886828701610a19565b9150509250925092565b60008060408385031215610af557600080fd5b6000610b0385828601610a04565b9250506020610b1485828601610a19565b9150509250929050565b600060208284031215610b3057600080fd5b6000610b3e84828501610a19565b91505092915050565b610b5081610d32565b82525050565b6000610b6182610c20565b610b6b8185610c2b565b9350610b7b818560208601610d75565b610b8481610e38565b840191505092915050565b610b9881610d5e565b82525050565b610ba781610d68565b82525050565b6000602082019050610bc26000830184610b47565b92915050565b60006020820190508181036000830152610be28184610b56565b905092915050565b6000602082019050610bff6000830184610b8f565b92915050565b6000602082019050610c1a6000830184610b9e565b92915050565b600081519050919050565b600082825260208201905092915050565b6000610c4782610d5e565b9150610c5283610d5e565b9250827fffffffffffffffffffffffffffffffffffffffffffffffffffffffffffffffff03821115610c8757610c86610dda565b5b828201905092915050565b6000610c9d82610d5e565b9150610ca883610d5e565b9250817fffffffffffffffffffffffffffffffffffffffffffffffffffffffffffffffff0483118215151615610ce157610ce0610dda565b5b828202905092915050565b6000610cf782610d5e565b9150610d0283610d5e565b925082821015610d1557610d14610dda565b5b828203905092915050565b6000610d2b82610d3e565b9050919050565b60008115159050919050565b600073ffffffffffffffffffffffffffffffffffffffff82169050919050565b6000819050919050565b600060ff82169050919050565b60005b83811015610d93578082015181840152602081019050610d78565b83811115610da2576000848401525b50505050565b60006002820490506001821680610dc057607f821691505b60208210811415610dd457610dd3610e09565b5b50919050565b7f4e487b7100000000000000000000000000000000000000000000000000000000600052601160045260246000fd5b7f4e487b7100000000000000000000000000000000000000000000000000000000600052602260045260246000fd5b6000601f19601f8301169050919050565b610e5281610d20565b8114610e5d57600080fd5b50565b610e6981610d5e565b8114610e7457600080fd5b5056fea2646970667358221220f605f87b61068e85e6134ec5c7a4fc55629c84062bc74d9225cd6264fda0250964736f6c63430008000033",
  "linkReferences": {},
  "deployedLinkReferences": {}
}